{
  "_format": "hh-sol-artifact-1",
  "contractName": "BurnYaris",
  "sourceName": "contracts/BurnYaris.sol",
  "abi": [
    {
      "inputs": [
        {
          "internalType": "uint256",
          "name": "amount",
          "type": "uint256"
        },
        {
          "internalType": "address",
          "name": "tokenAdress",
          "type": "address"
        }
      ],
      "name": "transferYaris",
      "outputs": [],
      "stateMutability": "nonpayable",
      "type": "function"
    }
  ],
  "bytecode": "0x608060405260008060006101000a81548173ffffffffffffffffffffffffffffffffffffffff021916908373ffffffffffffffffffffffffffffffffffffffff16021790555034801561005157600080fd5b506102c0806100616000396000f3fe608060405234801561001057600080fd5b506004361061002b5760003560e01c806371184e6f14610030575b600080fd5b61004a60048036038101906100459190610190565b61004c565b005b60008190508073ffffffffffffffffffffffffffffffffffffffff166323b872dd3360008054906101000a900473ffffffffffffffffffffffffffffffffffffffff16866040518463ffffffff1660e01b81526004016100ae939291906101ee565b6020604051808303816000875af11580156100cd573d6000803e3d6000fd5b505050506040513d601f19601f820116820180604052508101906100f1919061025d565b50505050565b600080fd5b6000819050919050565b61010f816100fc565b811461011a57600080fd5b50565b60008135905061012c81610106565b92915050565b600073ffffffffffffffffffffffffffffffffffffffff82169050919050565b600061015d82610132565b9050919050565b61016d81610152565b811461017857600080fd5b50565b60008135905061018a81610164565b92915050565b600080604083850312156101a7576101a66100f7565b5b60006101b58582860161011d565b92505060206101c68582860161017b565b9150509250929050565b6101d981610152565b82525050565b6101e8816100fc565b82525050565b600060608201905061020360008301866101d0565b61021060208301856101d0565b61021d60408301846101df565b949350505050565b60008115159050919050565b61023a81610225565b811461024557600080fd5b50565b60008151905061025781610231565b92915050565b600060208284031215610273576102726100f7565b5b600061028184828501610248565b9150509291505056fea26469706673582212205279a99ccb1f79865952f2203a5955b18a7b2d6b1790d8cabe37cf84a53301eb64736f6c63430008130033",
  "linkReferences": {},
  "deployedLinkReferences": {}
}