{
  "_format": "hh-sol-artifact-1",
  "contractName": "BurnYari",
  "sourceName": "contracts/BurnYari.sol",
  "abi": [
    {
      "inputs": [
        {
          "internalType": "uint256",
          "name": "amount",
          "type": "uint256"
        },
        {
          "internalType": "address",
          "name": "tokenAddress",
          "type": "address"
        }
      ],
      "name": "burn",
      "outputs": [],
      "stateMutability": "nonpayable",
      "type": "function"
    },
    {
      "inputs": [
        {
          "internalType": "address",
          "name": "",
          "type": "address"
        }
      ],
      "name": "burnedAmounts",
      "outputs": [
        {
          "internalType": "uint256",
          "name": "",
          "type": "uint256"
        }
      ],
      "stateMutability": "view",
      "type": "function"
    },
    {
      "inputs": [
        {
          "internalType": "address",
          "name": "account",
          "type": "address"
        }
      ],
      "name": "getBurnedAmount",
      "outputs": [
        {
          "internalType": "uint256",
          "name": "",
          "type": "uint256"
        }
      ],
      "stateMutability": "view",
      "type": "function"
    },
    {
      "inputs": [
        {
          "internalType": "address",
          "name": "account",
          "type": "address"
        }
      ],
      "name": "getTotalBurnedAmount",
      "outputs": [
        {
          "internalType": "uint256",
          "name": "",
          "type": "uint256"
        }
      ],
      "stateMutability": "view",
      "type": "function"
    },
    {
      "inputs": [
        {
          "internalType": "address",
          "name": "",
          "type": "address"
        }
      ],
      "name": "totalBurnedAmounts",
      "outputs": [
        {
          "internalType": "uint256",
          "name": "",
          "type": "uint256"
        }
      ],
      "stateMutability": "view",
      "type": "function"
    }
  ],
  "bytecode": "0x608060405261dead6000806101000a81548173ffffffffffffffffffffffffffffffffffffffff021916908373ffffffffffffffffffffffffffffffffffffffff16021790555034801561005257600080fd5b506105b3806100626000396000f3fe608060405234801561001057600080fd5b50600436106100575760003560e01c8063316e45eb1461005c57806346fc514b1461008c57806355baa48e146100bc578063dc77d128146100ec578063fcd3533c1461011c575b600080fd5b610076600480360381019061007191906103a2565b610138565b60405161008391906103e8565b60405180910390f35b6100a660048036038101906100a191906103a2565b610150565b6040516100b391906103e8565b60405180910390f35b6100d660048036038101906100d191906103a2565b610168565b6040516100e391906103e8565b60405180910390f35b610106600480360381019061010191906103a2565b6101b1565b60405161011391906103e8565b60405180910390f35b6101366004803603810190610131919061042f565b6101fa565b005b60026020528060005260406000206000915090505481565b60016020528060005260406000206000915090505481565b6000600260008373ffffffffffffffffffffffffffffffffffffffff1673ffffffffffffffffffffffffffffffffffffffff168152602001908152602001600020549050919050565b6000600160008373ffffffffffffffffffffffffffffffffffffffff1673ffffffffffffffffffffffffffffffffffffffff168152602001908152602001600020549050919050565b60008190508073ffffffffffffffffffffffffffffffffffffffff166323b872dd3360008054906101000a900473ffffffffffffffffffffffffffffffffffffffff16866040518463ffffffff1660e01b815260040161025c9392919061047e565b6020604051808303816000875af115801561027b573d6000803e3d6000fd5b505050506040513d601f19601f8201168201806040525081019061029f91906104ed565b5082600160003373ffffffffffffffffffffffffffffffffffffffff1673ffffffffffffffffffffffffffffffffffffffff1681526020019081526020016000208190555082600260003373ffffffffffffffffffffffffffffffffffffffff1673ffffffffffffffffffffffffffffffffffffffff16815260200190815260200160002060008282546103339190610549565b92505081905550505050565b600080fd5b600073ffffffffffffffffffffffffffffffffffffffff82169050919050565b600061036f82610344565b9050919050565b61037f81610364565b811461038a57600080fd5b50565b60008135905061039c81610376565b92915050565b6000602082840312156103b8576103b761033f565b5b60006103c68482850161038d565b91505092915050565b6000819050919050565b6103e2816103cf565b82525050565b60006020820190506103fd60008301846103d9565b92915050565b61040c816103cf565b811461041757600080fd5b50565b60008135905061042981610403565b92915050565b600080604083850312156104465761044561033f565b5b60006104548582860161041a565b92505060206104658582860161038d565b9150509250929050565b61047881610364565b82525050565b6000606082019050610493600083018661046f565b6104a0602083018561046f565b6104ad60408301846103d9565b949350505050565b60008115159050919050565b6104ca816104b5565b81146104d557600080fd5b50565b6000815190506104e7816104c1565b92915050565b6000602082840312156105035761050261033f565b5b6000610511848285016104d8565b91505092915050565b7f4e487b7100000000000000000000000000000000000000000000000000000000600052601160045260246000fd5b6000610554826103cf565b915061055f836103cf565b92508282019050808211156105775761057661051a565b5b9291505056fea26469706673582212201eb3571d318f6a3614b568cd45b5fd2c1620aff8f5d011957a5c2ea2a8533c4d64736f6c63430008130033",
  "linkReferences": {},
  "deployedLinkReferences": {}
}