{
  "_format": "hh-sol-artifact-1",
  "contractName": "Burner",
  "sourceName": "contracts/Burner.sol",
  "abi": [
    {
      "inputs": [
        {
          "internalType": "uint256",
          "name": "amount",
          "type": "uint256"
        },
        {
          "internalType": "address",
          "name": "tokenAddress",
          "type": "address"
        }
      ],
      "name": "burn",
      "outputs": [],
      "stateMutability": "nonpayable",
      "type": "function"
    }
  ],
  "bytecode": "0x608060405234801561001057600080fd5b506102a2806100206000396000f3fe608060405234801561001057600080fd5b506004361061002b5760003560e01c8063fcd3533c14610030575b600080fd5b61004a60048036038101906100459190610172565b61004c565b005b60008190508073ffffffffffffffffffffffffffffffffffffffff166323b872dd3361dead866040518463ffffffff1660e01b8152600401610090939291906101d0565b6020604051808303816000875af11580156100af573d6000803e3d6000fd5b505050506040513d601f19601f820116820180604052508101906100d3919061023f565b50505050565b600080fd5b6000819050919050565b6100f1816100de565b81146100fc57600080fd5b50565b60008135905061010e816100e8565b92915050565b600073ffffffffffffffffffffffffffffffffffffffff82169050919050565b600061013f82610114565b9050919050565b61014f81610134565b811461015a57600080fd5b50565b60008135905061016c81610146565b92915050565b60008060408385031215610189576101886100d9565b5b6000610197858286016100ff565b92505060206101a88582860161015d565b9150509250929050565b6101bb81610134565b82525050565b6101ca816100de565b82525050565b60006060820190506101e560008301866101b2565b6101f260208301856101b2565b6101ff60408301846101c1565b949350505050565b60008115159050919050565b61021c81610207565b811461022757600080fd5b50565b60008151905061023981610213565b92915050565b600060208284031215610255576102546100d9565b5b60006102638482850161022a565b9150509291505056fea2646970667358221220ee72ce8684d1c6b9e9342d2785ebe85b839bb1c24dc322a4cd0adb8ced9be1fe64736f6c63430008130033",
  "linkReferences": {},
  "deployedLinkReferences": {}
}